:10000000B3C000000C94511C0C949A1CCAC0000090
:10001000C8C00000C6C00000C4C000000C94211479
:10002000C0C00000BEC00000BCC000000C941D1188
:100030000C94E725B6C00000B4C00000B2C00000B8
:100040000C940227AEC000000C944C27AAC00000FC
:10005000A8C00000A6C00000A4C00000A2C000000C
:100060000C94A4159EC00000005EBCE2613FDD83DD
:10007000C29C7E20A3FD1F419DC3217FFCA2401E88
:100080005F01E3BD3E6082DC237D9FC1421CFEA078
:10009000E1BF5D0380DE3C62BEE0025CDF81633D68
:1000A0007C22C09E1D43A1FF4618FAA427799BC558
:1000B00084DA3866E5BB5907DB856739BAE4065848
:1000C0001947A5FB7826C49A653BD987045AB8E638
:1000D000A7F91B45C6987A24F8A6441A99C7257B28
:1000E0003A6486D85B05E7B98CD2306EEDB3510F18
:1000F0004E10F2AC2F7193CD114FADF3702ECC9208
:10010000D38D6F31B2EC0E50AFF1134DCE90722CF7
:100110006D33D18F0C52B0EE326C8ED0530DEFB1E7
:10012000F0AE4C1291CF2D73CA947628ABF51749D7
:100130000856B4EA6937D58B5709EBB536688AD4C7
:1001400095CB2977F4AA4816E9B7550B88D6346AB7
:100150002B7597C94A14F6A8742AC896154BA9F7A7
:10016000B6E80A54D7896B3511241FBECFEFD8E00B
:10017000DEBFCDBF12E0A0E0B1E0EAEDFAE502C0DB
:1001800005900D92AC32B107D9F726E0ACE2B2E0AF
:1001900001C01D92A638B207E1F70E9486270C9491
:1001A0006B2D2ECF60E08091B3040E94672461E044
:1001B0008091B4040E94672461E08091B3040E949E
:1001C000672460E08091B3040E94672460E080911E
:1001D000B4040E94672488E490E00C947E1A809313
:1001E000B3046093B4044093D60461E070E00E94CD
:1001F000172461E070E08091B4040E941724D2CFEC
:10020000CF92DF92EF92FF920F931F93CF93DF93E2
:10021000182F092F80912C02811113C00E94F626FD
:100220006093C1047093C2048093C3049093C40488
:1002300081E080932C02C12FD02F8E01025F1F4FCF
:1002400021C00E94F6266093C7047093C80480936F
:10025000C9049093CA04C090C104D090C204E09035
:10026000C304F090C404DC01CB018C199D09AE09D4
:10027000BF09893B9B40A105B105E8F293DF1092CD
:100280002C02D9CF8AE090E00E947E1A8091D60499
:100290000E94C4248993999382E390E00E947E1A7D
:1002A00061E08091B3040E94672482E190E00E94A3
:1002B0007E1A60E08091B3040E946724C017D107C2
:1002C00009F7DF91CF911F910F91FF90EF90DF9091
:1002D000CF90089580912F0290913002A091310229
:1002E000B0913202892B8A2B8B2B09F464C080EFEA
:1002F0000E9452188DE00E94521880E00E9452180D
:100300008091DD040E94521880912F028F770E9405
:10031000521880912F0290913002A0913102B09139
:10032000320227E0B695A795979587952A95D1F73C
:100330008F770E94521880912F0290913002A091E5
:100340003102B09132023EE0B695A7959795879518
:100350003A95D1F78F770E94521880912F02909191
:100360003002A0913102B091320245E1B695A795D5
:10037000979587954A95D1F78F770E94521880916B
:100380002F0290913002A0913102B09132025CE1D3
:10039000B695A795979587955A95D1F70E945218CB
:1003A00087EF0E94521810922F0210923002109282
:1003B00031021092320208950E94201A6093D904EB
:1003C0007093DA048093DB049093DC048091DD0465
:1003D0000E9495248823D1F30E94201A4091D904C9
:1003E0005091DA0420E73EEF241B350B620F731F98
:1003F0006D32714018F50E94201A6093D9047093F1
:10040000DA048093DB049093DC048091DD040E9485
:1004100095248111FACF0E94201A2091D90430919D
:10042000DA04621B730BCB018A5991408D329140E3
:1004300038F06E5076406D32714020F08FEF0895A5
:1004400080E0089581E008950F931F93CF93DF9389
:1004500010922F021092300210923102109232024A
:10046000C8E0D0E0A9DF81114CC02197D9F7C6E0E0
:10047000D0E0A2DF813009F044C02197D1F79CDFA2
:1004800081113FC099DF8130E1F5C0E0D0E001E0AB
:1004900010E092DF8130F9F4C8010C2E02C0880F01
:1004A000991F0A94E2F7092E000CAA0BBB0B40918E
:1004B0002F02509130026091310270913202842BF0
:1004C000952BA62BB72B80932F0290933002A093ED
:1004D0003102B09332022196C031D105D1F680911C
:1004E0002F0290913002A0913102B0913202AA27DE
:1004F000BB2780932F0290933002A0933102B093D8
:100500003202DF91CF911F910F9108950F931F93A6
:100510008093DD040E94201A6093D9047093DA045A
:100520008093DB049093DC048091DD040E94952489
:10053000882311F10E94201A0091D9041091DA0445
:100540002091DB043091DC04DC01CB01801B910B9A
:10055000A20BB30B813A9648A140B10528F38FEF67
:1005600090E0A0E0B0E080932F0290933002A0933F
:100570003102B093320260C00E94201A6093D90405
:100580007093DA048093DB049093DC048091DD04A3
:100590000E9495248823D1F30E94201A4091D90407
:1005A0005091DA042EE63DED241B350B620F731FCC
:1005B0006F35714028F085E51F910F910C9452180A
:1005C0000E94201A6093D9047093DA048093DB04AC
:1005D0009093DC048091DD040E9495248111FACF70
:1005E0000E94201A2091D9043091DA04621B730B07
:1005F000CB018E5F90418F35914018F41F910F9180
:1006000023CF6C5A78406D337105A8F68091DD04D4
:100610000E9495248823D1F30E94201A4091D90486
:100620005091DA042EEE3DEF241B350B620F731F41
:100630006D33710508F0BFCF1F910F9108958F9210
:100640009F92AF92BF92CF92DF92EF92FF92CF93A1
:100650006C01C62F0E94201A4B015C010D2C000C6E
:10066000EE08FF0861E08C2F0E946724809133021E
:10067000909134020E947E1A60E08C2F0E946724C1
:1006800080913302909134020E947E1A0E94201AB7
:10069000DC01CB0188199909AA09BB098C159D05B4
:1006A000AE05BF05F8F2CF91FF90EF90DF90CF90AD
:1006B000BF90AF909F908F9008958F929F92AF922E
:1006C000BF92CF92DF92EF92FF926C01F62E0E94C2
:1006D000201A4B015C0160E08F2D0E9467240D2CD5
:1006E000000CEE08FF080E94201ADC01CB018819DB
:1006F0009909AA09BB098C159D05AE05BF0598F39C
:10070000FF90EF90DF90CF90BF90AF909F908F9031
:100710000895E62FF0E0E25EFE4FE0819E2F977095
:1007200041E050E09A0101C0220F9A95EAF7F0E00B
:1007300093E0F695E7959A95E1F7BF01660F771F6D
:10074000E60FF71FB096922F9095328193239283F4
:100750009181292B2183682F70E0CA010E94242BEC
:10076000072E000C880B990B0E945B2920E030E0DB
:100770004AE754E40E94492A20E030E040EC50E48B
:100780000E9458280E9428296093330270933402F3
:1007900080933502909336020895AF92BF92CF9224
:1007A000DF92EF92FF920F931F93CF936B017C0127
:1007B000C42F5901642F86E2ACDF6C2F88E293E2EC
:1007C0003EDF6C2F84E991E178DF00E010E06C2FD0
:1007D00080E392E00A151B05A4F4F7FE06C02FDFA4
:1007E0006C2F80E496E069DF05C029DF6C2F80E381
:1007F00092E063DFCC0CDD1CEE1CFF1C0F5F1F4F73
:10080000E6CF1DDF6C2F80E090E0CF911F910F911C
:10081000FF90EF90DF90CF90BF90AF904ECFE82F3A
:10082000F0E0EE5CFE4FE0812E2F277081E090E03B
:1008300001C0880F2A95EAF7F0E093E0F695E79576
:100840009A95E1F79F01220F331FE20FF31FB09635
:10085000982F90952281922392839181892B818375
:100860000895AF92BF92CF92DF92EF92FF920F93D3
:100870001F93CF93DF936C01C62FD0E0CC0FDD1F09
:100880008E010F5A1D4FF80180819181009729F048
:100890000E94DB2CF801118210828E01095C1D4F31
:1008A000F80180819181009729F00E94DB2CF801EA
:1008B000118210829091B5048091D004981719F09C
:1008C00084E090E002C083E090E08C9D50018D9D1B
:1008D000B00C9C9DB00C1124B092B704A092B60449
:1008E000C5010E94432C8C01FE01EF5AFD4F9183FC
:1008F0008083892BE9F0C5010E94432C7C01FE0115
:10090000E95CFD4F91838083892B91F0A50160E024
:1009100070E0C8010E94642DA50160E070E0C7018D
:100920000E94642DD092D804C092D70481E019C0EF
:10093000C8010E94DB2CFE01EF5AFD4F118210828C
:10094000C95CDD4F888199810E94DB2C1982188255
:100950001092B7041092B6041092D8041092D704E3
:1009600080E0DF91CF911F910F91FF90EF90DF908A
:10097000CF90BF90AF90089531E02091B504909151
:10098000D004291330E0482F429546954695437090
:100990004093B504982F929593709093D004282F8C
:1009A0002695269523702093BE0483708093CC04F3
:1009B00081E08093CF04E62FF0E0EE0FFF1FEF5AA7
:1009C000FD4F0190F081E02DEF2B49F0491380E0BD
:1009D000381729F08091D7049091D80442CF089518
:1009E0000F931F93CF93C82F80911F038F3F99F0D0
:1009F0008091D1048C130FC08091D2049091D304C4
:100A00008617970741F48091D404841304C0809121
:100A1000D504821729F1822F8B01C093D1047093E2
:100A2000D3046093D2044093D4042093D50440931C
:100A3000CB046C2FA1DF6C2FC80113DFC82F8823D4
:100A400069F080911F0387FD06C0E9DE60E08091B8
:100A50001F030E94672481E08093C6048C2F00C08E
:100A6000CF911F910F9108956111D9CEE82FF0E039
:100A7000EE5CFE4F8081E82FF0E093E0F695E7957D
:100A80009A95E1F79F01220F331FE20FF31FB096F3
:100A9000282F277081E090E001C0880F2A95EAF79F
:100AA00080959181982391839281892382830895EF
:100AB000CF93C82F8091C604882331F080911F0303
:100AC00087FD02C060E0D0DFC0931F038091C604A1
:100AD000882331F08C2FA3DE60E08C2F0E946724E6
:100AE0008C2F90E0FC01ED5FFD4FE081F0E0EE0F18
:100AF000FF1FE750FE4F208131813093CE042093B9
:100B0000CD04FC01E552FE4F80818093AE04CF916D
:100B100008954F925F926F927F928F929F92AF92C1
:100B2000BF92CF92DF92EF92FF920F931F93CF93DA
:100B3000DF93CDB7DEB729970FB6F894DEBF0FBEAF
:100B4000CDBF722EC32ED42E598328E631E040E06B
:100B500050E00E94372B4B015C01ED82FE820F8337
:100B600018872D813E814F815885243631054105F6
:100B7000510540F083E690E0A0E0B0E08D839E83D5
:100B8000AF83B8878D819E81AF81B885C297A10957
:100B9000B048880F991F97FF03C0919581959109DF
:100BA00024E630E0281B390B032E000C440B550BB8
:100BB000672D7C2D8D2D99816436710581059105F8
:100BC00020F063E670E080E090E00E94F52A982F24
:100BD000872F762F662720E137E240E050E00E9421
:100BE000372B29013A01ACE3CA2ED12CE12CF12C90
:100BF000C501B401A70196010E94372B29833A83CE
:100C00004B835C83998199872CE3A981BA812A9FC0
:100C1000C0012B9F900D1124092E000CAA0BBB0BB9
:100C2000A5019401281B390B4A0B5B0B942F832FD2
:100C3000722F6627A70196010E94372B8981817048
:100C4000C82ED12CDC2CCC24DA94C20ED31ED7FEB5
:100C500003C0D194C194D1080D2C000CEE08FF08FC
:100C600080E091E0A0E0B0E09C01AD012C193D09CD
:100C70004E095F09C301B2010E94F52AC72ED82E82
:100C8000E92EFF249985992379F0913081F09230F3
:100C9000B9F09330E1F0943011F1C982DA82EB823D
:100CA000FC825301420121C05301420104C04601AC
:100CB00057017301620119821A821B821C8218C0BB
:100CC000C982DA82EB82FC827301620104C049822C
:100CD0005A826B827C82812C912C540109C04982FA
:100CE0005A826B827C8246015701C12CD12C76013D
:100CF0008D819E81AF81B885880F991FAA1FBB1F68
:100D00006627782F892F9A2F24E630E040E050E0C4
:100D10000E94372BDA01C90184199509A609B70980
:100D20008C019D013695279517950795D501C4012E
:100D3000800F911FA21FB31F9927AA27BB27DC0191
:100D400099278827C00ED11EE21EF31EFE2CED2C23
:100D5000DC2CCC24EE24FF248C299D29AE29BF292C
:100D600049815A816B817C81400F511F621F731F23
:100D7000BC01CD01642B29960FB6F894DEBF0FBEDF
:100D8000CDBFDF91CF911F910F91FF90EF90DF903A
:100D9000CF90BF90AF909F908F907F906F905F901B
:100DA0004F900895CF932091D7043091D8046217C3
:100DB000730708F058C02091B504C091D00490E0AA
:100DC0005091BE04A22FB0E04091CC04880F991F2F
:100DD000FC012C1322C0E95CFD4F9B01220F331F45
:100DE000620F731F20813181260F371FF901E50F34
:100DF000F11D5081A20FB31F6C91862F90E0A0E0EF
:100E0000B0E0DC0199278827952BF901E40FF11D4B
:100E10002081BC01CD01622B29C0EF5AFD4F660F26
:100E2000771F660F771F20813181260F371FA20F92
:100E3000B31FEC91D901AC0FB11D6C91862F90E0DE
:100E4000A0E0B0E0DC0199278827BE2BF901E40F70
:100E5000F11D4081842BF901E50FF11D2081BC01BA
:100E6000CD01722B03C060E070E0CB01CF910895FB
:100E70001F93CF93DF93CDB7DEB729970FB6F894C2
:100E8000DEBF0FBECDBF182F13DE8091B604909148
:100E9000B7049A838983E12FF0E0EE0FFF1FEF5A2A
:100EA000FD4F0190F081E02DDF011196808189874F
:100EB0009091CF04E091CD04F091CE048091AE04E6
:100EC000992309F436C09081982B9887908180955A
:100ED00089238F838F818E8388E08D83F894588552
:100EE0006F81E091CD04F091CE0449853D812E8142
:100EF00089819A81508347FD252F3A952083262F9B
:100F000039F0441F00C000006083000000C0F2CF31
:100F100038E04D9160830000019761F7F093CE04B3
:100F2000E093CD0449873D832E839A838983789407
:100F30003AC09081982B98879081809589238F83E0
:100F40008F818C8388E08B8358856F8149853B81B5
:100F50002C8189819A81508347FD252F00C000C0D4
:100F6000208300C000C000C000C000C0608300003B
:100F7000262F3A9541F0441F000000C000C000C079
:100F800000C000C0E8CF38E04D9100C0608300C0D1
:100F9000019709F7F093CE04E093CD0449873B8392
:100FA0002C839A83898329960FB6F894DEBF0FBEEF
:100FB000CDBFDF91CF911F910895CF92DF92EF9235
:100FC000FF920F931F93CF93DF936093CB042091F5
:100FD000D7043091D804232B09F461C0A0E0B0E01D
:100FE000C0E0D0E0E82FF0E0EE0FFF1F8F010F5AB6
:100FF0001D4F9F01295C3D4F69012091D70430911D
:10100000D804C217D30708F041C0F80140815181CC
:101010007A01EA0EFB1EF601208131812A0F3B1F67
:101020004091D00450E0B901640F751FFB0190811D
:101030006091CB044E0D5F1D969FB0011124FA0103
:1010400070836091BE0470E0A901460F571FFA013A
:1010500090814091CB046E0D7F1D949FA0011124BF
:10106000FB0150839091CC04492F50E0240F351F91
:10107000F90190812091CB044E0D5F1D929F90014C
:101080001124FA01308321961396B7CFDF91CF91C7
:101090001F910F91FF90EF90DF90CF90E9CEDF91FD
:1010A000CF911F910F91FF90EF90DF90CF90089517
:1010B0004F925F926F927F928F929F92AF92BF9268
:1010C000CF92DF92EF92FF920F931F93CF93DF9314
:1010D00069017A01902F2091D7043091D8046217CA
:1010E000730708F093C08701222733274D2C5E2C0D
:1010F0006F2C7724A091B504E091D004482F50E0E4
:10110000AE1317C0FB01EE0FFF1F6E0F7F1F440FC2
:10111000551FFA01EF5AFD4F0190F081E02DE60FC7
:10112000F71FDA01A95CBD4F4D915C91640F751FEB
:101130003FC0660F771F660F771F440F551FFA01D8
:10114000EF5AFD4F0190F081E02DE60FF71FEA0105
:10115000C95CDD4F48815981640F751F8F2C99241C
:10116000AA24BB24EF01CA0FD11D4091CB04442314
:1011700051F050E0489DD001499DB00D589DB00DF3
:1011800011244B2F01C0482D48834091B504EB0139
:10119000C40FD11D4091CB04442349F050E0489D39
:1011A000D001499DB00D589DB00D11248B2E888221
:1011B0004091D004DB01A40FB11D0C934091BE04FB
:1011C000DB01A40FB11D4C924091CC04DB01A40FB4
:1011D000B11DCC924091CB04049F80011124449D09
:1011E000200111244C9D600111242091D004DF01C5
:1011F000A20FB11D1C932091BE04DF01A20FB11DEF
:101200005C922091CC04E20FF11DD082992389F0E9
:10121000DF91CF911F910F91FF90EF90DF90CF90D2
:10122000BF90AF909F908F907F906F905F904F9006
:101230001FCEDF91CF911F910F91FF90EF90DF9024
:10124000CF90BF90AF909F908F907F906F905F9066
:101250004F9008958F929F92AF92BF92DF92EF923C
:10126000FF920F931F93CF93DF93D82E480159011C
:101270008091D7049091D80477FD02C057FF05C034
:10128000AC014150510960E070E0461757072CF45B
:10129000362F272FBA01432F522F009769F177FF7E
:1012A00002C060E070E07B018617970708F47C01BC
:1012B00057FF02C040E050E08417950708F4AC01E6
:1012C000EA012196EC16FD0650F400E0A501940118
:1012D000B7018D2DEDDE8FEFE81AF80AF3CF8D2DD3
:1012E000DF91CF911F910F91FF90EF90DF90BF9012
:1012F000AF909F908F90BCCDDF91CF911F910F91B8
:10130000FF90EF90DF90BF90AF909F908F900895E7
:101310001F93CF93DF932091D7043091D804232BD0
:1013200019F1182FC82FD0E0CC0FDD1FFE01EF5AA6
:10133000FD4F4091B6045091B70460E070E08081A9
:1013400091810E94642DC95CDD4F4091B60450919B
:10135000B70460E070E0888199810E94642D812F3C
:10136000DF91CF911F9184CDDF91CF911F9108958F
:101370002F923F924F925F926F927F928F929F92A5
:10138000AF92BF92CF92DF92EF92FF920F931F9393
:10139000CF93DF9300D000D01F92CDB7DEB7898303
:1013A00048015901160127014617570728F4962FBF
:1013B000872FBA01492F582F8091D7049091D804D4
:1013C000009709F4C9C07D836C838617970710F4D2
:1013D0009D838C838417950708F4AC014F5F5F4FA2
:1013E0009A018C819D81281B390B3B832A83C10183
:1013F00088599E4F8819990968E671E00E94102B60
:101400009C0144E6429FC001439F900D11246A81D4
:101410007B810E94102B6B018A819B810197A9F42B
:10142000860E971EB40180E090E012E3E12EF12CCD
:1014300000E010E024E630E040E050E06ADB9B0191
:10144000AC0100E06C817D816CC012E3E12EF12CD7
:1014500000E010E024E630E040E050E0C501B401D7
:1014600058DB9B01AC0100E06C817D81898120DE2D
:101470006C807D809FEF691A790AC69C9001C79C99
:10148000300DD69C300D11242C193D0944E6489DA1
:10149000C001499D900D11244901880E991EA12C6F
:1014A000B12C8C819D8101972A813B81820F931FF2
:1014B0009B838A83AC0CBD1C8A819B81681679064C
:1014C000F8F4C501880D991D64E670E00E94102BA8
:1014D00068597E4F80E090E012E3E12EF12C00E0AD
:1014E00010E024E630E040E050E013DB9B01AC016B
:1014F00000E0B3018981DCDD3FEF631A730ADACFC4
:1015000012E3E12EF12C00E010E024E630E040E0B0
:1015100050E0C201B101FDDA9B01AC0100E06A813B
:101520007B818981C5DD89810F900F900F900F908D
:101530000F90DF91CF911F910F91FF90EF90DF906F
:10154000CF90BF90AF909F908F907F906F905F9063
:101550004F903F902F908CCC0F900F900F900F904A
:101560000F90DF91CF911F910F91FF90EF90DF903F
:10157000CF90BF90AF909F908F907F906F905F9033
:101580004F903F902F900895AF92BF92CF92DF92ED
:10159000EF92FF920F931F93CF93DF93662309F48B
:1015A0006BC0C091D704D091D804209709F464C0CF
:1015B000C62E062E000CDD08CC15DD0558F4DF9193
:1015C000CF911F910F91FF90EF90DF90CF90BF9040
:1015D000AF909ECE182F161634F0A12CB12C7E01A0
:1015E000EC0CFD1C29C02197CC15DD0564F0BE0173
:1015F0006C197D09812FD6DB9B01AC0100E0BE0197
:10160000812F56DDF0CFC0E0D0E000E020E030E0F8
:10161000A901BE01812F4CDD2196CC16DD06A9F76C
:10162000812FDF91CF911F910F91FF90EF90DF906D
:10163000CF90BF90AF901CCCEA14FB0478F0B501BA
:101640006C197D09812FAEDB9B01AC0100E0B50177
:10165000812F2EDD8FEFA81AB80AEECFEC16FD060B
:10166000F8F600E020E030E0A901B701812F20DD8D
:101670008FEFE81AF80AF2CFDF91CF911F910F9107
:10168000FF90EF90DF90CF90BF90AF9008952F9292
:101690003F924F925F926F927F928F929F92AF9202
:1016A000BF92CF92DF92EF92FF920F931F93CF934F
:1016B000DF9300D0CDB7DEB7382E2DB73EB73A83D3
:1016C0002983662309F4D9C0E090D704F090D804A8
:1016D000E114F10409F4D1C0862F660F990BB7010C
:1016E0000E94102B282EC82E082E000CDD084DB6A7
:1016F0005EB618160CF04EC0C601880F991F880FF1
:10170000991FEDB7FEB7E81BF90B0FB6F894FEBFB3
:101710000FBEEDBF2DB73EB72F5F3F4F39015901C7
:1017200000E010E047018C189D08B401600F711FA4
:10173000832D38DBF50161937193819391935F0160
:101740000F5F1F4F0C151D0584F3F1E0EF1AF10830
:10175000EC14FD0464F0B7016C197D09832D22DBC4
:101760009B01AC0100E0B701832DA2DCEECFE12CA0
:10177000F12CF30121913191419151913F0100E010
:10178000B701832D95DCFFEFEF1AFF0AEC14FD047F
:1017900084F36CC0D194C194D108C601880F991FFD
:1017A000880F991F2DB73EB7281B390B0FB6F89439
:1017B0003EBF0FBE2DBF8DB79EB701963C018C0179
:1017C000A12CB12CAC14BD0469F0B501832DEADA6B
:1017D000F80161937193819391938F01FFEFAF1A99
:1017E000BF0AF0CF812C912CA22C220CBB086701E0
:1017F000CA0CDB1CC814D90478F0B4016A197B093F
:10180000832DD0DA9B01AC0100E0B401832D50DCC4
:101810002FEF821A920AEECF8FEF9FE3E89E4001EE
:10182000E99E900CF89E900C11248A189B088C0C51
:101830009D1C880C991C880C991CA12CB12CCE14D1
:10184000DF04A0F4F501E80DF91DE60DF71D208178
:1018500031814281538100E0B601832D29DC3FEFC5
:10186000C31AD30A84E0A80EB11CE9CF0FB6F894CE
:101870005EBE0FBE4DBE832DFBDAE981FA810FB645
:10188000F894FEBF0FBEEDBF0F900F90DF91CF9188
:101890001F910F91FF90EF90DF90CF90BF90AF908E
:1018A0009F908F907F906F905F904F903F902F9080
:1018B00008952F923F924F925F927F928F929F92C4
:1018C000AF92BF92CF92DF92EF92FF920F931F934E
:1018D000CF93DF9300D000D0CDB7DEB7782E7C83D6
:1018E0006B83B8018B819C814817590730F49B8129
:1018F0008C815C834B83492F582F8091D704909122
:10190000D804009709F49DC0EB81FC818E179F07D6
:1019100010F49C838B838417950708F4AC0116168A
:10192000170664F0872DF4DC00E020E03FEF4FEF76
:1019300050E06B817C81872DBBDB67C0CA01EB81E6
:10194000FC818E1B9F0B9A8389836C01FFEFCF1A5A
:10195000DF0AA90137FF03C05195419551094C9DFC
:10196000C0014D9D900D5C9D900D11240E94102B87
:101970004B01672B49F0A12CB12CE12CF12C212C2F
:10198000312C21012A943EC0EE24E394F12CEC1476
:10199000FD04D8F56B817C816E0D7F1D00E020E099
:1019A00030E0A901872D84DB8FEFE81AF80AEFCF2A
:1019B000E814F90408F040C0C50169817A810E94E9
:1019C000102B9B013327C901A0E0B0E09C01112737
:1019D0000027D201C101861B970BA109B109A901FA
:1019E0009801282B00E06B817C81872D61DB9FEFC4
:1019F000E91AF90AEFEFAE0EB11C8B819C810196BA
:101A00009C838B83EC14FD0498F2872D0F900F902C
:101A10000F900F90DF91CF911F910F91FF90EF905A
:101A2000DF90CF90BF90AF909F908F907F905F900E
:101A30004F903F902F901CCA00E020E030E0A901B9
:101A4000D2CF0F900F900F900F90DF91CF911F91F9
:101A50000F91FF90EF90DF90CF90BF90AF909F904D
:101A60008F907F905F904F903F902F90089504C08B
:101A7000615071098109910961157105810591050F
:101A8000B9F70895AF92BF92CF92DF92EF92FF9293
:101A90000F931F93CF93DF931092DE041092DF0415
:101AA0001092E0041092E1041092E204FC01E7516C
:101AB000FB4FC081FC01E151FB4FD08161E070E040
:101AC0008C2F0E94172460E08C2F0E946724DD2356
:101AD00071F1A12C24E2B22E34EFC32ED12CE12CD3
:101AE000F12C00E010E02D2F30E040E050E060E00D
:101AF00070E080E090E00E94942BE6E0AE2EB12CE6
:101B0000C12C0E94E72B29513C4F4F4F5F4F6F4F25
:101B10007F4F8F4F9F4F0E94962920E030E04AE789
:101B200054E40E94C0280E942D29A1DF05C063E073
:101B300070E080E090E09BDF60E070E08C2F0E941E
:101B4000172488E290E00E947E1A00E911E08C2FB1
:101B50000E949524811106C001501109C1F78EEF32
:101B60009FEF49C000E911E08C2F0E949524882343
:101B700021F001501109C1F7F2CF18E200E0D0E8DE
:101B800090E9E92EFF24F3948C2F0E949524811173
:101B900005C081E0E81AF108B9F7E1CF0E94201AE8
:101BA0006B017C0180E9A82EBB24B3948C2F0E948A
:101BB0009524882329F081E0A81AB108B9F7CFCF7E
:101BC0000E94201ADC01CB018C199D09AE09BF09C6
:101BD0008997A105B10538F0E02FF0E0E252FB4F04
:101BE00080818D2B8083D69511F40F5FD0E8115042
:101BF00039F680E090E0DF91CF911F910F91FF9037
:101C0000EF90DF90CF90BF90AF90089510920205B3
:101C1000109201051092FF04EFEFF4E0129284E0BD
:101C2000E73FF807D9F70895CF93C82F60E00E94E7
:101C300034058C2F90E0FC01E552FE4F208120936B
:101C40000005FC01ED5FFD4FE081F0E0EE0FFF1FAE
:101C5000E151FE4F808191819093F6048093F504C9
:101C6000D5DFCF910895FF920F931F93CF93DF930A
:101C7000F0900005C091F504D091F604F8948981A4
:101C80000F2D00958023898378941DE7115029F149
:101C900082E090E00E947E1A88818F21B9F3F89447
:101CA0008A8180238A8389818F298983789480EE31
:101CB00091E00E947E1AF89489810823098386E4C2
:101CC00090E00E947E1A8881F82211E009F010E06D
:101CD00078948AE991E00E947E1A812FDF91CF915A
:101CE0001F910F91FF9008950F931F93CF93DF9350
:101CF00000910005C091F504D091F604F894898113
:101D0000802B89838A81102F109581238A8383E019
:101D100090E00E947E1A8981182319838AE090E05E
:101D20000E947E1AC881789485E390E00E947E1A12
:101D3000C02381E009F480E0DF91CF911F910F91E2
:101D400008950F931F93CF93DF9308E010E0C0E056
:101D5000D1E0CADF8111CD2BDD0F01501109C9F788
:101D60008C2FDF91CF911F910F9108951F93CF93E7
:101D7000DF9310910005C091F504D091F604912FE6
:101D8000909580FF16C0F8948A8189238A8389817F
:101D9000812B89838AE090E00E947E1A8A81182B29
:101DA0001A83789487E390E0DF91CF911F910C9490
:101DB0007E1AF8948A8189238A838981812B898379
:101DC00081E490E00E947E1A8A81182B1A8378940D
:101DD00085E090E0DF91CF911F910C947E1AFF92E5
:101DE0000F931F93CF93DF93F82E062FC8E0D0E018
:101DF00011E081E09F2D912309F480E0B7DF110FFE
:101E00002197B9F7011113C0F894E091F504F0910E
:101E1000F604918180910005809598239183E0914B
:101E2000F504F091F6049281892382837894DF91FE
:101E3000CF911F910F91FF9008950F931F93CF9310
:101E4000DF938C0160E085E5CADFE801085F1F4F82
:101E500060E08991C4DFC017D107D1F7DF91CF913E
:101E60001F910F910895DF92EF92FF920F931F93AE
:101E7000CF93DF9320910105211104C07C01F3DE93
:101E8000811108C010920205109201051092FF0402
:101E900080E05BC060E080EFA2DFD1E000E0D12C09
:101EA000C1E022DF182F20DF113019F48130C1F496
:101EB00032C0202F30E018131DC080910205C817D2
:101EC00038F4F901E950FB4F80818D2349F402C0B9
:101ED000C81731F010E0C93060F4C093FF0409C0A6
:101EE000E02FF0E0E950FB4F80818D2B808311E0E3
:101EF00009C0DC2EF901E950FB4F80812D2F209580
:101F000028232083812F32DFCF5FDD0F11F40F5F95
:101F1000D1E0083030F2C13408F4B4CFD0920205D9
:101F2000D11003C081E0809301058091F7048823DC
:101F300009F4A8CFA7EFB4E0F7018FEF94E02D915B
:101F400021938A179B07D9F781E0DF91CF911F91E9
:101F50000F91FF90EF90DF900895DC0180E06150D9
:101F600040F09D91E82FE927F0E0E859FF4F849178
:101F7000F6CF0895AF92BF92CF92DF92EF92FF9289
:101F80000F931F93CF93DF93CDB7DEB764970FB650
:101F9000F894DEBF0FBECDBF5C01CE010D9663DFAE
:101FA000811102C033DE32C067E0CE010D96D5DF6D
:101FB0009C8989132BC08D85803111F0883231F5D1
:101FC00052DECE010D9639DF61E084E408DF4BDE9E
:101FD000CE010D9632DF60E08EEB01DF8E010F5FE8
:101FE0001F4F6E018AE0C80ED11C7801AADED7010E
:101FF0008D937D01AC15BD05C9F708DEF501D8014B
:102000008D918D018193CA16DB06C9F764960FB6D0
:10201000F894DEBF0FBECDBFDF91CF911F910F911E
:10202000FF90EF90DF90CF90BF90AF9008958F9288
:102030009F92AF92BF92DF92EF92FF920F931F9306
:10204000CF93DF9300D01F92CDB7DEB78091060506
:102050000E949524882339F061E070E080E090E0F0
:102060000E94451AF3CF8E010F5F1F4F53E0D52E0C
:10207000812C912C5401839447E0E42EF12C61E0F3
:10208000809103050E946724809106050E94952493
:10209000882379F0F8012281D501C4010E2C04C0F7
:1020A000880F991FAA1FBB1F0A94D2F7822B828325
:1020B0000FC0D501C4010E2C04C0880F991FAA1FA0
:1020C000BB1F0A94D2F78095F801928189238283FD
:1020D00060E0809103050E946724F1E0EF1AF108A7
:1020E00070F6DA9401501109D110C6CF61E08091E9
:1020F00003050E94672460E0809103050E94672425
:102100002B816A81862F90E0A0E0B0E0BA2FA92F42
:10211000982F8827A22B2981822BBC01CD018058C2
:102120000F900F900F90DF91CF911F910F91FF9023
:10213000EF90DF90BF90AF909F908F900895CF92D7
:10214000DF92EF92FF92CF93C9E1C12CD12C76019F
:102150006EDFC60ED71EE81EF91EC150C9F7C701B3
:10216000B60129E130E040E050E00E94592BCA015D
:10217000B901CF91FF90EF90DF90CF900895CF936A
:10218000DF93962FEA01809306056093030561E0D3
:1021900070E0892F0E94172460E070E080910605AE
:1021A0000E94172461E0809103050E94672484E661
:1021B00090E00E947E1A60E0809103050E946724EF
:1021C000BEDFBDDF609307057093080580930905A6
:1021D00090930A05D0930505C0930405DF91CF9134
:1021E0000895CF92DF92EF92FF9220910605FC01B5
:1021F0002083A5DFC0900705D0900805E090090571
:10220000F0900A056C197D098E099F090E945B29CF
:102210006B017C01609104057091050580E090E000
:102220000E9459299B01AC01C701B6010E94C02838
:10223000FF90EF90DF90CF9008951F920F920FB60E
:102240000F9211242F933F934F935F936F937F933C
:102250008F939F93AF93BF93EF93FF9380917502FA
:1022600087FF05C010928500109284002DC0209138
:102270007502022E000C330B8091060190E02817A6
:10228000390714F580917502082E000C990BFC019A
:10229000EE0FFF1F8E0F9F1FFC01EA58FD4F80813C
:1022A00086FF12C080917502082E000C990BFC016C
:1022B000EE0FFF1F8E0F9F1FFC01EA58FD4F80811C
:1022C00060E08F730E946724809175028F5F809316
:1022D000750220917502022E000C330B80910601CD
:1022E00090E0281739070CF040C0809175028C30BF
:1022F000E4F5209184003091850080917502082ECC
:10230000000C990BFC01EE0FFF1F8E0F9F1FFC01AD
:10231000EA58FD4F81819281820F931F909389002B
:102320008093880080917502082E000C990BFC01A7
:10233000EE0FFF1F8E0F9F1FFC01EA58FD4F80819B
:1023400086FF2EC080917502082E000C990BFC01AF
:10235000EE0FFF1F8E0F9F1FFC01EA58FD4F80817B
:1023600061E08F730E9467241BC08091840090916C
:102370008500049680349C4938F480E49CE990936D
:1023800089008093880009C0809184009091850025
:10239000049690938900809388008FEF8093750254
:1023A000FF91EF91BF91AF919F918F917F916F912D
:1023B0005F914F913F912F910F900FBE0F901F9003
:1023C0001895EF92FF920F931F93CF93C82F7B0125
:1023D0008A0161E070E00E941724CF738091760239
:1023E000807CC82BC093760280E292E08E199F0910
:1023F00097FD03969595879595958795809374029B
:1024000080E699E0801B910B97FD03969595879543
:10241000959587958093730280E090E0FC01EE0F24
:10242000FF1FE80FF91FEA58FD4F208126FD13C05A
:1024300001968C30910591F71092800082E0809394
:1024400081001092850010928400B19A80916F00F3
:10245000826080936F008091760280648093760220
:1024600080E0CF911F910F91FF90EF900895AC0104
:102470008091740228E830E0281B310987FD3395EC
:10248000C901880F991F880F991F481759078CF0A9
:102490008091730228E532E0281B310987FD3395CE
:1024A000220F331F220F331FCA01241735070CF4E4
:1024B000C90102972FB7F894092E000CAA0BBB0B89
:1024C00034E0880F991FAA1FBB1F3A95D1F743E04C
:1024D000B695A795979587954A95D1F790937802E9
:1024E000809377022FBF0895CF92DF92EF92FF92F1
:1024F000803222E092070CF03FC097FD06C0853B7A
:1025000091052CF084EB90E002C080E090E02091F7
:10251000740248E850E06A01C21AD10827FDD3943A
:10252000CC0CDD1CCC0CDD1C0D2C000CEE08FF08C7
:102530004091730228E532E0241B310947FD3395B1
:10254000220F331F220F331FA901330F660B770BA6
:102550009A01AB012C193D094E095F09DC010E946B
:102560008E2B24EB30E040E050E00E94592BC20E4D
:10257000D31EE41EF51EC601FF90EF90DF90CF90B2
:1025800076CF8CE08093060180E090E028EB3BE082
:10259000FC01EE0FFF1FE80FF91FEA58FD4F3283D1
:1025A000218301968C30910599F708958F929F921F
:1025B000AF92BF92CF92DF92EF92FF921F93CF9391
:1025C000DF9390910701891759F19F3F09F013C1DB
:1025D000809307011092B0001092B1009091B0006A
:1025E00092609093B0009091B10091609093B1008F
:1025F000A82FB0E0FD01ED5FFD4FE081F0E0EE0FB0
:10260000FF1FE750FE4F0190F081E02DF0930C0585
:10261000E0930B05FD01E552FE4F908190930D056F
:1026200049015A01EB01182F61E070E00E94172464
:102630009E0140E050E060E074E284EF90E00E9490
:10264000372B69017A01F694E794D794C79481E017
:10265000C81AD108E108F1088FEFC816D104E104C7
:10266000F10409F008F4BFC069017A01F4E0F694BE
:10267000E794D794C794FA95D1F781E0C81AD108A6
:10268000E108F1088FEFC816D104E104F104C1F0AC
:10269000B8F069017A01E6E0F694E794D794C7941C
:1026A000EA95D1F781E0C81AD108E108F1088FEF67
:1026B000C816D104E104F10409F020F493E050C0FD
:1026C00092E04EC069017A0187E0F694E794D794CE
:1026D000C7948A95D1F781E0C81AD108E108F108BA
:1026E0008FEFC816D104E104F10409F008F481C0A9
:1026F000C32ED42EE52EFF2481E0C81AD108E108AC
:10270000F1088FEFC816D104E104F10409F008F4D0
:102710006CC069017A0169E0F694E794D794C79494
:102720006A95D1F781E0C81AD108E108F1088FEF66
:10273000C816D104E104F10409F008F458C0DA0124
:10274000C9013BE0B695A795979587953A95D1F73E
:102750006C017D0121E0C21AD108E108F10897E07F
:102760008091B100887F982B9093B1002097A1F4BD
:10277000809170008D7F8093700060E0812FDF91E9
:10278000CF911F91FF90EF90DF90CF90BF90AF90CF
:102790009F908F900C94672481149104A104B1043C
:1027A00071F0DE01AA0FBB1FA50194010E94842BCA
:1027B00028EE33E040E050E00E94372B04C020E0D8
:1027C0003AEC4AE95BE3C092B300209315053093DD
:1027D000160540931705509318058091700082608C
:1027E0008093700008C091E0BBCF95E0B9CF96E030
:1027F000B7CF94E0B5CFDF91CF911F91FF90EF90CD
:10280000DF90CF90BF90AF909F908F900895909160
:102810000701891313C09FEF9093070190917000F7
:102820009D7F9093700091E09093B0009091B100E3
:10283000987794609093B1001092B30060E00C948C
:1028400067241F920F920FB60F9211242F933F937C
:102850004F935F936F937F938F939F93AF93BF93A8
:10286000EF93FF938091150590911605A0911705A0
:10287000B0911805892B8A2B8B2B51F190910D0566
:10288000E0910B05F0910C05808189278083809170
:10289000150590911605A0911705B0911805181609
:1028A00019061A061B06BCF48091150590911605B1
:1028B000A0911705B09118050197A109B10980935E
:1028C000150590931605A0931705B093180503C03E
:1028D000809107019CDFFF91EF91BF91AF919F9194
:1028E0008F917F916F915F914F913F912F910F90B9
:1028F0000FBE0F901F901895AC01E0915B05F09111
:102900005C053097E1F090919F0280919E029817AC
:10291000B0F090E0292F30E02617370754F4DA01A1
:10292000A20FB31F8C91D901A55EBA4F8C939F5F04
:10293000F1CF10929F0260939E02CB0109940895FB
:10294000E0911905F0911A05309729F010929C0238
:1029500010929B020994089510920D0381E08093D8
:102960000B0310920A0361E082E10E94672461E098
:1029700083E10E946724E9EBF0E080818E7F808311
:1029800080818D7F808388E48093B80085E4809384
:10299000BC000895413208F045C090910D0391119B
:1029A000FCCF91E090930D0320930B032FEF209326
:1029B000A0021092E502240F2093E40290930C03EE
:1029C00090910C03880F892B80930C0380910A034C
:1029D000813071F410920A0380910C038093BB0044
:1029E0008091BC0083FDF8CF85EC8093BC0003C0D0
:1029F00085EE8093BC0080910D038130E1F38091DE
:102A0000E502841710F44091E502A6EEB2E0962F9D
:102A1000FB018E2F891B841718F48D918193F9CFB8
:102A2000842F089580E008950F93413208F04CC040
:102A300090910D039111FCCF32E030930D03009380
:102A40000B033FEF3093A0021092E5024093E402A3
:102A5000562FA6EEB2E0FB013E2F351B341718F4BB
:102A600031913D93F9CF10920C0330910C03880FF4
:102A7000832B80930C0380910A03813071F41092B0
:102A80000A0380910C038093BB008091BC0083FDFE
:102A9000F8CF85EC8093BC0003C085EE8093BC002A
:102AA000222321F080910D038230D1F38091A00286
:102AB0008F3F79F08091A002803241F08091A00296
:102AC000803331F094E005C091E003C092E001C092
:102AD00093E0892F0F9108954091C202262F30E094
:102AE000240F311D21323105DCF420910D032430F7
:102AF000C9F4FC0180E090E0861758F43091C202DE
:102B00002191DC01AC53BD4FA30FB11D2C93019655
:102B1000F3CF8091C202680F6093C20280E00895F3
:102B200081E0089582E0089585ED8093BC00809156
:102B3000BC0084FDFCCF10920D03089585EC8093BA
:102B4000BC0010920D0308951F920F920FB60F92C2
:102B500011242F933F934F935F936F937F938F93A2
:102B60009F93AF93BF93EF93FF938091B900887FBA
:102B7000803609F4ACC070F5883209F461C090F475
:102B8000803109F455C038F4882309F40BC188302A
:102B900009F44EC00AC1883109F452C0803209F4E8
:102BA00065C003C1803409F471C050F4803309F466
:102BB0005DC0883309F0F9C08093A002BFDFF5C083
:102BC000803509F457C0883509F468C0883409F0A5
:102BD000ECC0EAC0883909F4DBC0A8F4883709F4EE
:102BE00076C038F4883609F472C0803709F46FC0B3
:102BF000DCC0883809F4CCC0803909F471C0803851
:102C000009F0D3C06DC0803B09F497C038F4803A16
:102C100009F47BC0883A09F490C0C7C0803C09F42D
:102C2000BBC0883C09F4B8C0883B09F49BC0BDC058
:102C300080910C038093BB0085EC8093BC00B5C0F1
:102C40009091E5028091E4029817A0F5E091E502E9
:102C500081E08E0F8093E502F0E0EA51FD4F808124
:102C60008093BB0085EC8093BC009FC08093A00242
:102C70005BDF9BC0E091E50281E08E0F8093E5026F
:102C80008091BB00F0E0EA51FD4F80839091E50216
:102C90008091E402981708F07BC076C0E091E502CD
:102CA00081E08E0F8093E5028091BB00F0E0EA5155
:102CB000FD4F808380910B03811176C081E080936A
:102CC0000A0384EA8093BC0010920D036EC083E077
:102CD00080930D031092A10285EC8093BC0065C027
:102CE0008091A102803208F053C0E091A10281E0FE
:102CF0008E0F8093A1028091BB00F0E0EE55FD4F56
:102D0000808385EC8093BC0050C018DF8091A102C5
:102D1000803230F4E091A102F0E0EE55FD4F1082D8
:102D20006091A10270E0E0910603F091070382EA4E
:102D300092E009951092A10238C084E080930D03BF
:102D40001092C3021092C202E0910803F0910903AD
:102D500009958091C202811105C081E08093C20271
:102D60001092C402E091C30281E08E0F8093C302EF
:102D7000F0E0EC53FD4F80818093BB009091C30243
:102D80008091C202981720F485EC8093BC000DC09E
:102D900085E88093BC0009C085EC8093BC0010924C
:102DA0000D0303C01092A002BFDEFF91EF91BF910F
:102DB000AF919F918F917F916F915F914F913F91D3
:102DC0002F910F900FBE0F901F90189510929F0299
:102DD00010929E0210929C0210929B02BDDD80EA2E
:102DE00094E190930903809308038CE794E1909316
:102DF0000703809306030895462F613208F040E2EE
:102E000021E06BE175E0C6DD10929F0280939E0287
:102E1000089591E090939A0280939D0210929C02F3
:102E200010929B0208950F93CF93C82F0C2F21E08F
:102E300040919B026BE375E080919D02F5DD9091DE
:102E40009B02992311F08111F1CF10929C021092F4
:102E50009B0210929A02CF910F910895CF93DF9326
:102E60001F92CDB7DEB7898380919A028823A1F0A3
:102E700080919B028032B8F480919C02E82FF0E0B0
:102E8000E55CFA4F998190838F5F80939C028093D9
:102E90009B0281E090E009C061E0CE0101961CDE5A
:102EA00081E090E002C080E090E00F90DF91CF9150
:102EB000089580919E0290E020919F02821B9109CB
:102EC000089590919F0280919E02981750F4E92FE7
:102ED000F0E0E55EFA4F208130E09F5F90939F0223
:102EE00002C02FEF3FEFC90108958F929F92AF92DA
:102EF000BF92CF92DF92EF92FF92CF93DF9390E059
:102F0000FC01E558FA4FC081FC01E35AFA4FD08129
:102F1000880F991F880F991FFC01ED59FA4FC08047
:102F2000D180E280F3802C2F277081E090E0AC010B
:102F300002C0440F551F2A95E2F79A01EC2FF0E0EA
:102F400033E0F695E7953A95E1F7AF01440F551F49
:102F5000E40FF51FB096322F30954281342332832F
:102F60003181232B2183ED2FF0E073E0F695E79577
:102F70007A95E1F79F01220F331FE20FF31FB096FE
:102F80002D2F277001C0880F2A95EAF7809591812F
:102F90009823918392818923828360E08C2F0E9401
:102FA000672482E090E0AAD261E08C2F0E9467241F
:102FB0008AE090E0A3D260E08C2F0E94672440D288
:102FC0004B015C018D2F0E949524882321F038D27B
:102FD0004B015C0119C034D2DC01CB01881999097D
:102FE000AA09BB09C816D906EA06FB0658F7EFCFAF
:102FF00027D2DC01CB0188199909AA09BB09C81697
:10300000D906EA06FB0628F08D2F0E94952481112F
:10301000EFCF16D2681979098A099B0928E330E0B5
:1030200040E050E00E94372BC901DF91CF91FF9023
:10303000EF90DF90CF90BF90AF909F908F900895CA
:10304000CF93DF931F92CDB7DEB78FB78983F89404
:1030500089815F9350E85093610050E05093610084
:103060005F918FBF0F90DF91CF910895CF93DF9342
:103070001F92CDB7DEB79FB79983F89499818111DC
:1030800006C06095809164006823609364009FBFD0
:103090000F90DF91CF9108958091C000881F8827FD
:1030A000881F08959091C00095FFFCCF8093C600C3
:1030B00080E008958091C60008954F925F926F92CC
:1030C0007F928F929F92AF92BF92CF92DF92EF92B8
:1030D000FF920F931F93CF93DF93EC016A017B0163
:1030E000C901B80143E096958795779567954A950C
:1030F000D1F7488141FD0CC048015901B3E1B694B4
:10310000A79497948794BA95D1F72B013C0112C0EC
:1031100028013901F4E07694679457944794FA951E
:10312000D1F748015901A4E1B694A79497948794E4
:10313000AA95D1F74C145D046E047F0460F1C814A5
:10314000D904EA04FB0438F1488141FF0EC0A7010D
:103150009601220F331F441F551F0E94372BDA019F
:10316000C9010197A109B10912C0C901B80124E040
:1031700096958795779567952A95D1F7A70196013A
:103180000E94372BDA01C9010197A109B1099D837A
:103190008C8381E001C080E0DF91CF911F910F917E
:1031A000FF90EF90DF90CF90BF90AF909F908F9067
:1031B0007F906F905F904F9008950F931F93CF93E0
:1031C000DF93EC018B01803C910519F462E080E013
:1031D0004DDF8A818F738A83888182608883F801BA
:1031E0009681358184812A81482F4370440F297F3D
:1031F000242B2A8329818470880F880F2B7F822BB0
:1032000089838A818F7C832B8A838A81282F277FD9
:10321000F8E09F9FC0011124822B8A83F80140812E
:1032200051816281738100E014E224EF30E0CE012D
:1032300044DF998198609983998190619983DF91A6
:10324000CF911F910F910895AF92BF92CF92DF92CD
:10325000EF92FF920F931F93CF93DF9328E0829F0B
:1032600070011124082F000F000F000FC0E0D0E004
:1032700010E082E0E81AF108C62ED12CAA24A3940B
:10328000B12CC7018C0F9D1F4297B0F4C6010C2EC4
:1032900002C0959587950A94E2F780FF0DC08C2FA8
:1032A000800F0E949524882339F0C5010C2E01C09F
:1032B000880F0A94EAF7182B2196C830D10509F730
:1032C000812FDF91CF911F910F91FF90EF90DF90B1
:1032D000CF90BF90AF9008955F926F927F928F9240
:1032E0009F92AF92BF92CF92DF92EF92FF920F9395
:1032F0001F93CF93DF934A01FB015080452B19F4B4
:1033000088248A94982C7B013B01680E791EC0E0CA
:10331000D0E000E010E087E0C82ED12CE614F704DE
:1033200089F10815190508F04AC05701F701819184
:103330007F010C2E01C0880F0A94EAF785298F7748
:10334000B1DE0F5F1F4FF501808190E096012C1BCD
:103350003D0B02C0959587952A95E2F7582E219648
:10336000C730D105D8F28016910651F0852D8F77A0
:1033700099DE0F5F1F4F551C5524551C2797F0CF22
:103380008401CCCF2097D9F008151905C0F481E04D
:1033900090E001C0880FCA95EAF781508521DF913E
:1033A000CF911F910F91FF90EF90DF90CF90BF9042
:1033B000AF909F908F907F906F905F9073CEDF91D2
:1033C000CF911F910F91FF90EF90DF90CF90BF9022
:1033D000AF909F908F907F906F905F900895FF9235
:1033E0000F931F93CF93DF93C82F162FF42E052F23
:1033F00080EF58DE8C2F56DECF2DD02FCE01810FDF
:10340000911D8C01C017D10741F040E050E0BE0192
:1034100081E090E061DF2196F5CF87EFDF91CF91DA
:103420001F910F91FF903ECEFC0101900020E9F723
:103430003197BF01681B790BAC0181E7D0CF0895AC
:103440003FB7F8948091680490916904A0916A0450
:10345000B0916B0426B5A89B05C02F3F19F00196CB
:10346000A11DB11D3FBFBA2FA92F982F8827820F0A
:10347000911DA11DB11DBC01CD0142E0660F771F5A
:10348000881F991F4A95D1F708958F929F92AF9206
:10349000BF92CF92DF92EF92FF926B017C01D0DF5F
:1034A0004B015C01C114D104E104F104F1F0C7DF68
:1034B000C7DFDC01CB0188199909AA09BB09883E3D
:1034C0009340A105B10570F321E0C21AD108E108CB
:1034D000F10888EE880E83E0981EA11CB11CC1146F
:1034E000D104E104F10421F7DDCFFF90EF90DF90EC
:1034F000CF90BF90AF909F908F90089582309105AC
:1035000038F0880F991F880F991F05970197F1F7D9
:10351000089510923C061092130610921206109213
:103520008905109288051092CB051092870580E4DA
:1035300080933D0608951F93CF93DF9300D000D072
:10354000CDB7DEB7809181058823D9F060918405DD
:1035500080E07ADE1091840518238091CE0518173B
:1035600081F0812F90E09C838B8380E99BDD42E09A
:1035700050E0BE016D5F7F4F82E090E0ADDE1093C2
:10358000CE05809182058823D9F06091850581E080
:103590005BDE1091850518238091CF05181781F007
:1035A000812F90E09A83898381E97CDD42E050E0BD
:1035B000BE016F5F7F4F82E090E08EDE1093CF05FB
:1035C0000F900F900F900F90DF91CF911F91089562
:1035D000CF93DF9300D0CDB7DEB77A836983803194
:1035E00070F46115704458F4806E5CDD42E050E088
:1035F000BE016F5F7F4F82E090E06EDE06C08FEF0E
:1036000051DD8FEF4FDD8FEF4DDD0F900F90DF918C
:10361000CF910895CF93C2EF8EE08C0FC630A8F4FF
:103620000E941124823089F480911C0390E00C2EBA
:1036300002C0959587950A94E2F780FF06C08C2F0B
:103640000E94C424BC018C2FC3DFCF5FC63021F79A
:10365000CF910895EF92FF920F931F93CF93DF9333
:10366000D82F8B01C42FF22E6F3F7F4F71F08D2F1B
:10367000D0DB802FF3DB8F2DD6DB80911A03909166
:103680001B03009721F03ADF02C000E010E06C2F2E
:103690008D2FB2DBEC2EF12C0CDCE816F9060CF0C9
:1036A00008DCD0938A0500938B0503DC892B61F439
:1036B00062E06C0F4AE855E087E7DF91CF911F91F8
:1036C0000F91FF90EF908BCE0AE815E0C8018A5861
:1036D00095408E159F0564F7F4DBF8018283E9DBE2
:1036E0000F5F1F4F892B91F7E3CFCF93C0E08EEE92
:1036F0008C0F823028F466E070E08C2F0E94172433
:10370000CF5FC431A1F781E080931903CF915ECBE5
:103710001F93CF93DF9380916F02909170029C0171
:103720002F5F3F4F3093700220936F022091710200
:1037300030917202281739070CF057C080916D0242
:1037400090916E02892B09F450C080916C0290E038
:103750000E94420DBC0190916C02492F50E0FA0189
:10376000E751FB4FD081FA01ED51FB4FC081109220
:10377000700210926F0290936B029F5F90936C02A5
:1037800020916D0230916E0221503109421753078A
:1037900014F010926C02672B41F59091DE04809139
:1037A000DF04890F9091E004890F9091E104890F63
:1037B00011E09091E204891301C010E080EF72DC07
:1037C00085E670DC8D2F6EDC8C2F6CDCCEEDD4E0CA
:1037D000899168DC84E0C23ED807D1F7812F62DC92
:1037E00087EFDF91CF911F915DCCDF91CF911F913A
:1037F0000895CF93DF9380911303909114039C015C
:103800002F5F3F4F30931403209313032091110334
:1038100030911203281739070CF040C0109214039E
:10382000109213038091170390911803892BB1F123
:1038300080910F035ADBEC0120910F0330911003AC
:1038400020930E03C90101969093100380930F03F8
:10385000809117039091180301972817390724F0D6
:103860001092100310920F0380EF1CDC83E61ADC29
:10387000E0910E03F0E0E558FA4F808113DC8C2FC5
:103880008F7710DCCE01880F892F881F990B9195B7
:103890008F7708DC87EFDF91CF9104CCDF91CF9158
:1038A00008951F920F920FB60F9211240F931F933A
:1038B0002F933F934F935F936F937F938F939F9338
:1038C000AF93BF93EF93FF93E09A0E94F626009187
:1038D000BA041091BB042091BC043091BD04DC01FA
:1038E000CB01801B910BA20BB30B883C9105A1056A
:1038F000B10518F081E080932D020E94F6266093B6
:10390000BA047093BB048093BC049093BD04FF91F0
:10391000EF91BF91AF919F918F917F916F915F9147
:103920004F913F912F911F910F910F900FBE0F90CC
:103930001F9018951F920F920FB60F9211240F939C
:103940001F932F933F934F935F936F937F938F9327
:103950009F93AF93BF93EF93FF93E19A0E94F62654
:103960000091BA041091BB042091BC043091BD04B5
:10397000DC01CB01801B910BA20BB30B883C9105A2
:10398000A105B10518F081E080932E020E94F62671
:103990006093BA047093BB048093BC049093BD04FD
:1039A000FF91EF91BF91AF919F918F917F916F9117
:1039B0005F914F913F912F911F910F910F900FBEEB
:1039C0000F901F901895CF92DF92EF92FF920F9376
:1039D0001F93CF93DF93CDB7DEB7CD58D1090FB684
:1039E000F894DEBF0FBECDBF8091D205893769F54F
:1039F0008091880590918905039708F07BC5C09058
:103A00000901D0900A01F60101900020E9F73197F1
:103A10008F010C191D0980EF45DB89E743DB82E04C
:103A200041DB86E03FDBE12CF12CE016F10609F4E6
:103A30005EC5B6016E0D7F1D40E050E081E090E074
:103A40004BDC2FEFE21AF20AF0CF0091880501500B
:103A5000843609F4E1C170F48135E9F020F48D3049
:103A600009F42BC247C58F3509F467C1823609F4C2
:103A700090C140C58637C1F038F4893609F403C1D6
:103A8000803709F434C136C5883709F4E4C08A3771
:103A900009F408C12FC580EF05DB82E503DB81E077
:103AA00001DB87EFFFDA26C51091D40515FD22C58D
:103AB0000E94AC148091D3052091D40526FB2227C7
:103AC00020F991E02927912F9871983039F128F445
:103AD000911110C59ED912E007C0903109F43BC086
:103AE000983109F46BC006C5101788F4212F30E017
:103AF000F901EC52FA4F8081879588278795F90163
:103B0000ED52FA4F9081890FA9D91E5FEDCF81E068
:103B10008AD983E191E00197F1F7ECC44091D60591
:103B20006091D505063079F470E030E8439F600D70
:103B3000711D11244091D8054795442747959091D0
:103B4000D705490F06C0479544274795460F6FEFA5
:103B50007FEF80DDCFC4E0910801E73024F086E4F8
:103B600091E062DCC7C49091D6053091D50506304E
:103B700081F4632F70E040E8949F600D711D112463
:103B80009091D8059795992797954091D705940FCF
:103B900006C0979599279795930F6FEF7FEFEF5F8B
:103BA000E093080135E0E302F0011124EC5EF94FE7
:103BB000808372836183938324839CC42091080152
:103BC00012163CF490E0622F022E000C770B35E0C9
:103BD0000FC08FEF809308018DC4349FF001359F93
:103BE000F00D1124EC5EF94F4081841739F09F5F8E
:103BF000492F50E06417750784F790E085E0492F5E
:103C000050E0641775071CF19830F8F4FA0131960A
:103C10008E9FD0018F9FB00D1124AC5EB94F3C91A7
:103C2000849FF001859FF00D1124EC5EF94F3083E5
:103C300011964D915C9112975283418313963C915A
:103C40001397338314963C9134839F5FD8CF2150D0
:103C5000209308014FC4023080F02091D405809158
:103C6000D30590E040E8249F800D911D112400971A
:103C700021F090931B0380931A0380911903811103
:103C800039C433DD37C480EF0DDA8AE60BDA12EF80
:103C9000163010F4812F01C08FE704DA1F5F163051
:103CA000B9F725C48091D4052091D30530E070E8A0
:103CB000879F200D311D112430930C0120930B019F
:103CC0002115310509F416C488E290E0B9010E947B
:103CD000102B709312036093110380ED97E0B901EC
:103CE0000E94102B709372026093710203C405301E
:103CF00008F400C41091D3058EEF810F823108F0D3
:103D0000F9C38091D7054091D60550E090E8899F8E
:103D1000400D511D11248091D5056091D40570E0AE
:103D2000E0E88E9F600D711D1124812F0E94E1112A
:103D300064E070E0812F7BD5DDC39091D305809145
:103D4000D40591111BC09091D8052091D70530E082
:103D5000F0E89F9F200D311D1124032E000C440B11
:103D6000550B9091D6056091D50570E0E0E89E9FD7
:103D7000600D711D11240E94D612BCC3913009F050
:103D8000B9C320E030E0A90160E070E00E94D612E3
:103D9000B1C32091170330911803263031050CF080
:103DA000A9C38091D305809316039091D405909375
:103DB0001503F901EE0FFF1FEE0FFF1FED59FA4F2C
:103DC0006091D6054091D50550E070E8679F400DA1
:103DD000511D1124052E000C660B770B4083518377
:103DE00062837383F901E558FA4F8083F901E35A3E
:103DF000FA4F90836CE070E01AD56CE070E080912F
:103E0000150315D58091170390911803019690938F
:103E10001803809317036EC320916D0230916E02D8
:103E2000263031050CF045C08091D3059091D40522
:103E3000492F50E04631510531F441E0F901E1519B
:103E4000FB4F40830DC04B30510531F44AE0F9017E
:103E5000E151FB4F408304C087E591E0E5DA4AC3B6
:103E6000F901E751FB4F8083F901ED51FB4F90833E
:103E70006FE070E0DCD480916D0290916E020E9440
:103E8000420D892B09F036C360916D0270916E026C
:103E90006F5F7F4F70936E0260936D02809171022D
:103EA000909172020E94242B7093720260937102AF
:103EB00021C38CE891E0B8DA1DC38091D305FE01DF
:103EC00031967F019FE711929A95E9F78E3051F56F
:103ED0000E94AC1400E011E0812F0E94091781E0DC
:103EE0000E941317811105C0F701E00FF11D108327
:103EF0000F5F1F5F1F3781F780EFD4D88DE0D2D8D6
:103F00008EE0D0D8802FCED8670110E0C6018E1980
:103F10009F09801791070CF0EAC2F60181916F01A9
:103F2000C1D8F4CF81119AC08091D405813009F0B5
:103F30004AC02091D5052093C504E22FF0E0E95353
:103F4000FE4F8081E82FF0E033E0F695E7953A9553
:103F5000E1F7AF01440F551FE40FF51FB096382F5E
:103F6000377081E090E001C0880F3A95EAF78095BC
:103F7000918198239183928189238283223081F4D5
:103F800080911E038111B6C281E080931E03F894D4
:103F9000E89A809169008260809369007894AAC24F
:103FA000233009F0A7C280911D038111A3C281E0D3
:103FB00080931D03F894E99A80916900886080934A
:103FC0006900789497C2811195C24091D60550E05E
:103FD00060E070E0FCE1440F551F661F771FFA9503
:103FE000D1F78091D70590E0A0E0B0E015E1880F0F
:103FF000991FAA1FBB1F1A95D1F7482B592B6A2B63
:104000007B2B8091D80590E0A0E0B0E00EE0880F17
:10401000991FAA1FBB1F0A95D1F7482B592B6A2B52
:104020007B2B8091D90590E0A0E0B0E027E0880FDD
:10403000991FAA1FBB1F2A95D1F7842B952BA62B5E
:10404000B72B2091DA052F77BC01CD01622B20E23E
:1040500030E04091D5050E94CD034CC2873109F074
:104060002DC18091D40581111DC0F090D50500911E
:10407000D605F0E80F9F800111248091D7058F7736
:10408000082B80EF0FD88DE00DD887E10BD822E503
:104090004FEFB8018F2D0E94F004882309F425C248
:1040A00081E023C2813009F049C00091DA0510E0B7
:1040B00020E030E065E1000F111F221F331F6A95D9
:1040C000D1F78091DB0590E0A0E0B0E07EE0880FC2
:1040D000991FAA1FBB1F7A95D1F7082B192B2A2BE2
:1040E0003B2B8091DC0590E0A0E0B0E0E7E0880F9A
:1040F000991FAA1FBB1FEA95D1F7082B192B2A2B52
:104100003B2B8091DD058F77082B4091D80570E817
:10411000479FA00111248091D9058F77482B60918A
:10412000D60580E8689FB00111248091D7058F776C
:10413000682B8091D5050E942A09DCC1823039F4B0
:104140006091D6058091D5050E94DD07D3C18330EB
:1041500009F079C0C090DE05D12CE12CF12CF5E1FD
:10416000CC0CDD1CEE1CFF1CFA95D1F78091DF050D
:1041700090E0A0E0B0E01EE0880F991FAA1FBB1FCF
:104180001A95D1F7C82AD92AEA2AFB2A8091E00594
:1041900090E0A0E0B0E007E0880F991FAA1FBB1FC6
:1041A0000A95D1F7C82AD92AEA2AFB2A8091E10583
:1041B0008F77C82A0091DA0510E020E030E085E131
:1041C000000F111F221F331F8A95D1F78091DB0545
:1041D00090E0A0E0B0E04EE0880F991FAA1FBB1F3F
:1041E0004A95D1F7082B192B2A2B3B2B8091DC0504
:1041F00090E0A0E0B0E057E0880F991FAA1FBB1F16
:104200005A95D1F7082B192B2A2B3B2B8091DD05D2
:104210008F77082B4091D80590E8499FA001112481
:104220008091D9058F77482B6091D605E0E86E9F85
:10423000B00111248091D7058F77682B8091D50527
:104240000E94B80957C1843039F46091D605809135
:10425000D5050E94C40A4EC1853039F46091D60557
:104260008091D5050E94470B45C18630F9F4009135
:10427000DB0510E02091DA0530E04091D805F0E848
:104280004F9FA00111248091D9058F77482B609111
:10429000D60580E8689FB00111248091D7058F77FB
:1042A000682B8091D5050E94590C24C1873009F0F4
:1042B00021C18091D5050E9488091CC1893169F509
:1042C0008091D405893009F015C1F090D5058F2D66
:1042D0000E94140E8E0100581F4F8CE0F8011192BD
:1042E0008A95E9F7C8010E94BA0F80EF0E94521820
:1042F0008DE00E94521889E10E9452188F2D0E9471
:104300005218F80180810E945218F80181810E94A0
:10431000521887EF0E945218EDC0813209F092C006
:104320008091D405863151F44091D7054E5060916B
:10433000D6058091D5050E94EF00DCC0823109F0DE
:10434000D9C08E0100581F4F8EE0F80111928A9556
:10435000E9F7C8010E94000180EF0E9452188DE029
:104360000E94521881E20E945218F80180819181C6
:10437000880F892F881F990B8F770E945218F80198
:1043800080818F770E945218F80182819381880F73
:10439000892F881F990B8F770E945218F80182810C
:1043A0008F770E945218F80184819581880F892F98
:1043B000881F990B8F770E945218F80184818F779C
:1043C0000E945218F80186819781880F892F881FD3
:1043D000990B8F770E945218F80186818F770E947F
:1043E0005218F80180859185880F892F881F990BB5
:1043F0008F770E945218F80180858F770E9452189B
:10440000F80182859385880F892F881F990B8F77F4
:104410000E945218F80182858F770E945218F80185
:1044200084859585880F892F881F990B8F770E9427
:104430005218F80184858F770E94521887EF0E94E6
:10444000521858C0833209F055C08091D405873086
:1044500081F44091D705F0E84F9FA001112480918D
:10446000D805482B6091D6058091D5050E94BF10D4
:1044700041C08A3009F03EC0CE0180589F4F0E9453
:10448000F1106B017C0120E030E0A90175D687FFB7
:1044900004C0F7FAF094F7F8F094C701B601DDD63E
:1044A000162F072F80EF0E9452188DE00E9452189D
:1044B00083E20E945218C058DF4F8881C058D04014
:1044C0000E945218802F0E945218812F0E94521869
:1044D00020E030E048EC52E4C701B601DAD7BDD69F
:1044E000862F64E60E94042B892F0E94521887EFC2
:1044F0000E945218C357DF4F0FB6F894DEBF0FBEAD
:10450000CDBFDF91CF911F910F91FF90EF90DF9082
:10451000CF9008951F93CF93DF93182FEB018091D5
:104520003D0690E068177907A0F0E091B804F0919B
:10453000B90481E0309799F08093D1058091BF0450
:104540009091C004099580913D0690E0C817D90765
:1045500028F4CE52DA4F188380E001C081E0DF9169
:10456000CF911F910895CF92DF92FF920F931F93E7
:10457000CF93DF9390913C069923D9F0873F51F474
:1045800010923C06DF91CF911F910F91FF90DF9029
:10459000CF9019CA6091880570918905BBDF809121
:1045A00088059091890501969093890580938805E7
:1045B00030C160911206709113066115710509F4FE
:1045C000EFC087FDEDC061507109709313066093D1
:1045D0001206A0DF8091120690911306892B09F034
:1045E00018C180918705882309F413C1803D09F41F
:1045F000CAC030F48039B1F1803C09F4A5C0CDC007
:10460000843F09F452C0853F09F48EC0803E09F012
:10461000C4C01091CB05143108F0BFC08091D30500
:104620008770C091D205CF77D0E090E8899FC00D08
:10463000D11D11240091D405812FF3D0833039F09E
:10464000843009F0AAC0CE010E947412A6C08EEF79
:10465000810F823108F0A1C0602F6F77AE01812FEA
:10466000ADD19BC08091D2050091D30510E090E8B8
:10467000899F000D111D1124F090CB05FF0CFF0C3C
:10468000FF0CC0E0D0E0CC24C394D12CB6018C2F19
:104690000C2E01C0660F0A94EAF760238F0D17D124
:1046A0002196C830D10591F778C0D091D2050D2F51
:1046B00010E0C091D3058C2FB4D08F3709F46DC0B2
:1046C0008EEF8C0F8231E8F4EC2FE695E695E695B7
:1046D0002C2F2770F0E0EC57FA4F81E090E001C0FA
:1046E000880F2A95EAF70115110519F00B3011050D
:1046F00021F49081892B808304C080959081892347
:104700008083B8018C2F93D0D23009F046C0CE50B0
:1047100081E090E001C0880FCA95EAF790911C03F0
:10472000892B80931C0339C0C091D3058EEF8C0F69
:10473000823198F5D091D2058C2F73D0813069F5F4
:104740006D2F8C2FC4D029C04091CB05463028F561
:104750008091D20550911C0381110BC081E090E043
:1047600001C0880F4A95EAF78095852380931C0342
:1047700014C021E030E001C0220F4A95EAF7252B52
:1047800020931C030AC0E091CB05E33030F4F0E045
:10479000EF57FA4F8091D20580831092870539C078
:1047A000803F28F4982F9F709093CB05807F803EA8
:1047B000B1F038F4803C29F1803D19F1803949F598
:1047C00017C0843FA9F0853F99F0803F11F581E043
:1047D00080933C0610928905109288051AC023E048
:1047E00030E030931306209312068093870511C0A2
:1047F00022E030E030931306209312068093870561
:1048000008C021E030E03093130620931206809315
:104810008705DF91CF911F910F91FF90DF90CF908F
:104820000895E82FF0E0E25CF94F8081089590E070
:10483000FC01E25CF94F20812F3709F447C0608307
:104840006115710521F06130710511F10895FC01C8
:10485000E95EFD4F8081E82FF0E033E0F695E795C3
:104860003A95E1F79F01220F331FE20FF31FB09635
:10487000282F277081E090E001C0880F2A95EAF781
:1048800080959181982391839281892382830895D1
:10489000FC01E95EFD4FE0818E2F877001C0660F3D
:1048A0008A95EAF7F0E083E0F695E7958A95E1F7D7
:1048B000CF01880F991FE80FF91FB096862F8095BA
:1048C0009281892382838181682B61830895E82FF7
:1048D000F0E0E95EFD4FE0819E2F977021E030E02F
:1048E000A90102C0440F551F9A95E2F7CA01F0E0F2
:1048F00093E0F695E7959A95E1F79F01220F331F14
:10490000E20FF31FB096282F209532813223328395
:104910003181382B3183662321F09281892B828368
:1049200008958281282322830895E82FF0E0E95E2C
:10493000FD4FE0812E2F277081E090E001C0880FAD
:104940002A95EAF7F0E093E0F695E7959A95E1F776
:104950009F01220F331FE20FF31FDF019096982F64
:10496000909511962C911197292311962C931197BC
:1049700012962C911297922312969C9390A19823B1
:1049800081E009F480E0089590917A00906490931A
:104990007A0090917A0094FFFCCF806480937C0031
:1049A00080917A00806480937A0080917A0086FDFD
:1049B000FCCF809178009091790008952F923F92DA
:1049C0004F925F926F927F928F929F92AF92BF921F
:1049D000CF92DF92EF92FF920F931F93CF93DF93CB
:1049E000C82FD0E0FE01E95EFD4F0081902F977047
:1049F00021E030E0190101C0220C9A95EAF710E09D
:104A000073E0169507957A95E1F79801220F331F09
:104A1000020F131F005E1F4F922D9095F801228107
:104A200092239283918192299183F4E0CC0FDD1F30
:104A3000FA95E1F7662319F0643639F461E047DF4F
:104A4000C15EDC4F1F861E866EC0FE01E15EFC4F1C
:104A500088EC90E09387828787E390E0958784874E
:104A60004115510511F053874287C15EDC4FE62E98
:104A7000F12CFD86EC86CC24C394D12CDF86CE8627
:104A80002A853B85032E000C440B550B60E970ED25
:104A900083E090E00ED649015A01F1E08F1A9108A7
:104AA000A108B108C501B40106D420E030E048EC0B
:104AB00052E466D32B013C01B7010F2C000C880B8C
:104AC000990BF9D39B01AC01C301B201E2D444D5E7
:104AD000BFD32B013C0179836883C501B401EBD3BB
:104AE00020E030E048EC52E44BD34B015C0164E63B
:104AF00070E06E197F09072E000C880B990BDBD331
:104B00009B01AC01C501B401C4D426D5A1D37B83DC
:104B10006A835D824C82DF82CE8219861886F80114
:104B20008281282A2282EFE1F3E080E090E020E019
:104B300030E0468557854130510541F4DC01AA0F2C
:104B4000BB1FAE5AB94F2D933C9301962F5F3F4F39
:104B500070962431310569F79093600480935F0467
:104B6000F8941092800010928100109285001092AB
:104B7000840081E090E09093890080938800809188
:104B800081008860809381008091810081608093A2
:104B900081008091810082608093810080916F000C
:104BA000846080936F007894DF91CF911F910F9173
:104BB000FF90EF90DF90CF90BF90AF909F908F903D
:104BC0007F906F905F904F903F902F9008951F922D
:104BD0000F920FB60F9211244F925F927F928F9295
:104BE0009F92AF92BF92CF92DF92EF92FF920F937C
:104BF0001F932F933F934F935F936F937F938F9365
:104C00009F93AF93BF93CF93DF93EF93FF930E9454
:104C10004C18882361F080916104909162040196A0
:104C200090936204809361040E945A18F0CF4090E0
:104C300052065090530680905F049090600492E575
:104C4000A92E96E0B92E8501E0E0F0E0A201A4E0F3
:104C5000440F551FAA95E1F7E815F9050CF054C06B
:104C6000E801A991B9918E01BD0184E0660F771F1B
:104C70008A95E1F7CB01815E9C4F7C01EC01288590
:104C800039852130310581F5CD01895E9D4FEC01DB
:104C90007880872D90E0C3E096958795CA95E1F7D7
:104CA0006C01CC0CDD1C8C0D9D1D8096E701EE8007
:104CB000FF80D72DD7707D2EEC01EF2839F0FA80D8
:104CC00001C0220F7A94EAF72F2907C0FA8001C0A9
:104CD000220F7A94EAF720952F212A83CB01815E57
:104CE0009C4FEC0119861886615E7C4F415E5C4FDB
:104CF000EB012C813D81EA018C819D818217930714
:104D00000CF02D013196A2CFFA01E15EFC4F4481F7
:104D1000558120E030E061E070E028153905F4F5B8
:104D2000F501819191915F01DC01E4E0AA0FBB1FC5
:104D3000EA95E1F7FD01E15EFC4FC481D581C41B1A
:104D4000D50BD583C483CD2B31F5C681D78121976F
:104D500019F4C281D38102C0C081D181D583C483BB
:104D6000A15EBC4F1696CD91DC911797FC01FF27F1
:104D700084E0EE0FFF1F8A95E1F7E15EFC4F71873B
:104D8000608781E090E0CD2B11F080E090E01796F5
:104D90009C938E9316972F5F3F4FBFCF5093890000
:104DA000409388001092850010928400FF91EF914B
:104DB000DF91CF91BF91AF919F918F917F916F9133
:104DC0005F914F913F912F911F910F91FF90EF9025
:104DD000DF90CF90BF90AF909F908F907F905F902B
:104DE0004F900F900FBE0F901F9018952FB7F8940B
:104DF00060916404709165048091660490916704E9
:104E00002FBF08951F920F920FB60F9211242F9368
:104E10003F938F939F93AF93BF938091640490913E
:104E20006504A0916604B09167043091630423E0A7
:104E3000230F2D3720F40196A11DB11D05C026E8D2
:104E4000230F0296A11DB11D209363048093640477
:104E500090936504A0936604B093670480916804FE
:104E600090916904A0916A04B0916B040196A11D10
:104E7000B11D8093680490936904A0936A04B09371
:104E80006B04BF91AF919F918F913F912F910F90A4
:104E90000FBE0F901F9018951F920F920FB60F9292
:104EA00011242F934F935F938F939F93EF93FF93CF
:104EB0002091C60080916C0490916D04AC014F5F0D
:104EC0005F4F50936D0440936C04FC01E257FB4F1D
:104ED0002083FF91EF919F918F915F914F912F913F
:104EE0000F900FBE0F901F901895E1ECF0E08081BD
:104EF00080688083808180618083E2ECF0E0808143
:104F0000846080838081826080830895CF93DF9363
:104F1000CDB7DEB727970FB6F894DEBF0FBECDBF73
:104F200080E091EEA0E0B0E089839A83AB83BC83FC
:104F300083E08D831E821F82BE016F5F7F4F80ECF6
:104F400090E00E94DD180E942018789484B5826059
:104F500084BD84B5816084BD85B5826085BD85B51D
:104F6000816085BD80916E00816080936E0010929B
:104F70008100809181008260809381008091810016
:104F800081608093810080918000816080938000A7
:104F90008091B10084608093B1008091B000816005
:104FA0008093B00087E880937A000E94891A0E945B
:104FB000C1129BDF0E949B1A80916C0490916D043A
:104FC000009711F040E038C011DF60937A067093CB
:104FD0007B0680937C0690937D06C0907E06D090E1
:104FE0007F06E0908006F090810620910B013091C1
:104FF0000C01890120E030E0AB01BC014C195D09D6
:105000006E097F090417150726073707B8F5D7017A
:10501000C601800F911FA21FB31F80937E0690933D
:105020007F06A0938006B09381060E94F91B0E9420
:10503000881B0E940A1B22C0242F30E02817390742
:1050400054F4F901E259FB4FD901A257BB4F2C91FF
:1050500020834F5FF1CF182F10926D0410926C04D3
:105060008EE6E82E84E0F82E00E0011708F0ACCFC1
:10507000F70181917F0177DA0F5FF7CF80912E02E0
:1050800081110DC080912D02882309F493CF82E015
:105090000E9486020E946A0110922D028BCF83E04B
:1050A0000E9486020E946A0110922E0283CF5058FD
:1050B000BB27AA270ED0B3C1A4D130F0A9D120F0CC
:1050C00031F49F3F11F41EF499C10EF4E095E7FB13
:1050D0008FC1E92FB5D180F3BA1762077307840730
:1050E000950718F071F49EF5CDC10EF4E0950B2EE6
:1050F000BA2FA02D0B01B90190010C01CA01A0012A
:105100001124FF27591B99F0593F50F4503E68F184
:105110001A16F040A22F232F342F4427585FF3CFC5
:10512000469537952795A795F0405395C9F77EF496
:105130001F16BA0B620B730B840BBAF09150A1F0DF
:10514000FF0FBB1F661F771F881FC2F70EC0BA0F65
:10515000621F731F841F48F4879577956795B795ED
:10516000F7959E3F08F0B3CF9395880F08F09927E5
:10517000EE0F97958795089517D108F481E008956B
:105180000CD04DC145D140F03CD130F021F45F3F0F
:1051900019F02EC1511177C131C152D198F3992321
:1051A000C9F35523B1F3951B550BBB27AA276217EB
:1051B0007307840738F09F5F5F4F220F331F441F30
:1051C000AA1FA9F333D00E2E3AF0E0E830D0915068
:1051D0005040E695001CCAF729D0FE2F27D0660F55
:1051E000771F881FBB1F261737074807AB07B0E894
:1051F00009F0BB0B802DBF01FF2793585F4F2AF0AA
:105200009E3F510568F0F4C03EC15F3FECF3983E0D
:10521000DCF3869577956795B795F7959F5FC9F706
:10522000880F911D9695879597F90895E1E0660F8F
:10523000771F881FBB1F621773078407BA0720F008
:10524000621B730B840BBA0BEE1F88F7E095089571
:1052500004D06894B11117C10895FAD088F09F570F
:1052600090F0B92F9927B751A0F0D1F0660F771FB2
:10527000881F991F1AF0BA95C9F712C0B13081F092
:1052800001D1B1E00895FEC0672F782F8827B85F5D
:1052900039F0B93FCCF3869577956795B395D9F7F3
:1052A0003EF490958095709561957F4F8F4F9F4FFD
:1052B0000895E89409C097FB3EF490958095709509
:1052C00061957F4F8F4F9F4F9923A9F0F92F96E952
:1052D000BB279395F695879577956795B795F111C7
:1052E000F8CFFAF4BB0F11F460FF1BC06F5F7F4F64
:1052F0008F4F9F4F16C0882311F096E911C0772376
:1053000021F09EE8872F762F05C0662371F096E87E
:10531000862F70E060E02AF09A95660F771F881F4D
:10532000DAF7880F9695879597F90895E894F92FFD
:1053300096EBFF2381F0121613061406440B939587
:10534000F69587957795679557954040FF23B9F770
:105350001BC099270895882351F49850D2F7872BC2
:10536000762F652F542F432F322F20E0B1F31216E2
:1053700013061406440B88233AF09A95440F551FE0
:10538000661F771F881FCAF755234AF4440F551F1D
:1053900011F460FF04C06F5F7F4F8F4F9F4F880FE6
:1053A0009695879597F90895990F0008550FAA0BC0
:1053B000E0E8FEEF16161706E807F907C0F0121628
:1053C0001306E407F50798F0621B730B840B950B2B
:1053D00039F40A2661F0232B242B252B21F4089580
:1053E0000A2609F4A140A6958FEF811D811D08951D
:1053F00097F99F6780E870E060E008959FEF80EC88
:10540000089500240A94161617061806090608952A
:1054100000240A9412161306140605060895092E90
:105420000394000C11F4882352F0BB0F40F4BF2BFF
:1054300011F460FF04C06F5F7F4F8F4F9F4F08953F
:1054400057FD9058440F551F59F05F3F71F0479535
:10545000880F97FB991F61F09F3F79F0879508951A
:10546000121613061406551FF2CF4695F1DF08C039
:10547000161617061806991FF1CF86957105610556
:1054800008940895E894BB2766277727CB0197F9FE
:1054900008950BD0C4CFB5DF28F0BADF18F09523FC
:1054A00009F0A6CFABCF1124EECFCADFA0F3959FB2
:1054B000D1F3950F50E0551F629FF001729FBB27FB
:1054C000F00DB11D639FAA27F00DB11DAA1F649FA7
:1054D0006627B00DA11D661F829F2227B00DA11D5A
:1054E000621F739FB00DA11D621F839FA00D611DE0
:1054F000221F749F3327A00D611D231F849F600D01
:10550000211D822F762F6A2F11249F5750408AF039
:10551000E1F088234AF0EE0FFF1FBB1F661F771FC5
:10552000881F91505040A9F79E3F510570F060CF01
:10553000AACF5F3FECF3983EDCF3869577956795AD
:10554000B795F795E7959F5FC1F7FE2B880F911DE3
:105550009695879597F908957BDFE0F09E37D8F010
:105560009639B8F49E3848F4672F782F8827985FCB
:10557000F9CF86957795679593959539D0F3B62FA2
:10558000B1706B0F711D811D20F48795779567951C
:10559000939502C01CC077CF882371F4772321F044
:1055A0009850872B762F07C0662311F499270DC0DA
:1055B0009051862B70E060E02AF09A95660F771F75
:1055C000881FDAF7880F9695879597F908959F3F7A
:1055D00031F0915020F4879577956795B795880FAE
:1055E000911D9695879597F90895DB018F939F9369
:1055F0008BD0BF91AF91A29F800D911DA39F900D65
:10560000B29F900D11240895991B79E004C0991F51
:10561000961708F0961B881F7A95C9F7809508950C
:10562000AA1BBB1B51E107C0AA1FBB1FA617B707C8
:1056300010F0A61BB70B881F991F5A95A9F78095E4
:105640009095BC01CD01089597FB072E16F40094A8
:1056500006D077FD08D0E4DF07FC05D03EF4909536
:1056600081959F4F0895709561957F4F0895A1E2B0
:105670001A2EAA1BBB1BFD010DC0AA1FBB1FEE1FCC
:10568000FF1FA217B307E407F50720F0A21BB30B17
:10569000E40BF50B661F771F881F991F1A9469F793
:1056A00060957095809590959B01AC01BD01CF01EF
:1056B0000895052E97FB16F400940FD057FD05D0E2
:1056C000D6DF07FC02D046F408C0509540953095CF
:1056D00021953F4F4F4F5F4F08959095809570955E
:1056E00061957F4F8F4F9F4F0895A29FB001B39F49
:1056F000C001A39F700D811D1124911DB29F700DDB
:10570000811D1124911D0895F0DFA59F900DB49F78
:10571000900DA49F800D911D11240895B7FFF4CF23
:10572000F3DF821B930B0895DF93CF931F930F93A7
:105730009A9DF02D219FF00D8B9DF00D8A9DE02DFF
:10574000F10D039FF00D029FE00DF11D4E9DE00D48
:10575000F11D5E9DF00D4F9DF00D7F936F93BF92F5
:10576000AF925F934F93D501C0DF8B01AC01D7019E
:10577000BCDFEB01E80FF91FD6011FD02F913F913D
:10578000D601B3DFC60FD71FE81FF91FAF91BF9136
:1057900014D02F913F91A9DFC60FD71FE81FF91F23
:1057A000D601A3DFE60FF71F9801BE01CF01112438
:1057B0000F911F91CF91DF91089597DF460F571FEB
:1057C000C81FD91F08F431960895689401C0E89461
:1057D0008F929F92CF93DF9305D0DF91CF919F90CF
:1057E0008F90089588249924F401E401B0E49F93F4
:1057F000AA279A158B049C04ED05FE05CF05D0075A
:10580000A10798F4AD2FDC2FCF2FFE2FE92D982C78
:10581000892E982F872F762F652F542F432F322FC5
:105820002227B85031F7BF9127C01B2EBF91BB274D
:10583000220F331F441F551F661F771F881F991F94
:10584000881C991CEE1FFF1FCC1FDD1FAA1FBB1F4A
:105850008A149B04EC05FD05CE05DF05A007B10702
:1058600048F08A189B08EC09FD09CE09DF09A00B56
:10587000B10B21601A94E1F62EF49401AF01BE0140
:10588000CD01000C08950F931F93CF93DF938230C7
:10589000910510F482E090E0E0918406F091850695
:1058A00020E030E0A0E0B0E0309719F14081518174
:1058B0000281138148175907C8F08417950769F4C6
:1058C000109731F012960C93129713961C9327C0E1
:1058D000009384061093850622C02115310519F026
:1058E0004217530718F49A01BD01EF01DF01F801D7
:1058F000DBCF21153105F9F0281B390B2430310598
:1059000080F48A819B816115710521F0FB019383ED
:10591000828304C09093850680938406FE013296AC
:1059200044C0FE01E20FF31F81939193225031098D
:10593000398328833AC02091820630918306232B35
:1059400041F42091020130910301309383062093AA
:10595000820620910001309101012115310541F4A9
:105960002DB73EB74091040150910501241B350B22
:10597000E0918206F0918306E217F307A0F42E1B54
:105980003F0B2817390778F0AC014E5F5F4F2417A3
:10599000350748F04E0F5F1F5093830640938206F1
:1059A0008193919302C0E0E0F0E0CF01DF91CF91CD
:1059B0001F910F910895CF93DF93009709F481C051
:1059C000FC01329713821282A0918406B091850661
:1059D000109781F420813181820F931F20918206DC
:1059E000309183062817390751F5F0938306E09329
:1059F000820667C0ED0120E030E0CE17DF0740F4FB
:105A00004A815B819E0141155105F1F0EA01F5CF14
:105A1000D383C28340815181840F951FC817D90752
:105A200059F488819981840F951F02969183808310
:105A30008A819B81938382832115310529F4F09318
:105A40008506E09384063DC0E901FB83EA83499122
:105A50005991C40FD51FEC17FD0761F48081918126
:105A6000840F951F0296E90199838883828193812F
:105A70009B838A83E0E0F0E012968D919C911397CE
:105A8000009719F0FD01DC01F7CF8D919C911197E2
:105A90009D012E5F3F4F820F931F20918206309110
:105AA00083062817390769F4309729F41092850680
:105AB0001092840602C013821282B0938306A093D0
:105AC0008206DF91CF910895DC0101C06D934150B2
:0A5AD0005040E0F70895F894FFCF6E
